:10000000B8988F9ABA9AB09B02C01AC00895F8CBDC
:02001000089551
:10004000C29A2FE78FE492E1215080409040E1F77F
:1000500000C00000C2982FE78FE492E12150804059
:0A0060009040E1F700C00000EBCF74
:1018000012C02CC02BC02AC029C028C027C026C0A7
:1018100025C024C023C022C021C020C01FC01EC0BC
:101820001DC01CC01BC011241FBECFE5D4E0DEBF0D
:10183000CDBF10E0A0E6B0E0EEE9F9E102C005900E
:101840000D92A236B107D9F710E0A2E6B0E001C0D0
:101850001D92A43AB107E1F724D09FC0D1CFE199FE
:10186000FECF07B600FCFBCF8EBB6DBBF894E29AAF
:10187000E19AE199FECF7894089510BC8DE489B97E
:1018800080B5866880BD8AB188618AB908955F9BFA
:10189000FECF8CB108955D9BFECF8CB95D9BFECFD2
:1018A0000895EBDFC29AF3DF8035E9F78FE6F3DFC7
:1018B000EEDF843609F05AC08FE6EDDF4FC0C29AE2
:1018C000E6DFF801EE59FF4F8083C2980F5F1F4F8C
:1018D00000341105A4F31FEF012E909257001DD084
:1018E000EE27FF2790916000FF9631969A95E1F7D9
:1018F00010E2D0E0C2E603E010D001E10ED0099082
:10190000199001E00AD032961A95C9F7FF973197DE
:1019100005E003D001E101D010C02091570020FD67
:10192000FCCF3FB7F894E199FECF00935700E895BC
:10193000000000003FBF0000089511248DE6ABDFDA
:10194000A6DF893771F48FE6A6DF80916000909161
:1019500061000196909361008093600000E010E0C8
:10196000B7CF813619F48FE696DF6AD385E693DF29
:10197000979A2FE78FE492E1215080409040E1F761
:1019800000C0000097982FE78FE492E1215080403B
:0E1990009040E1F700C00000EBCFF894FFCFCD
:02199E00010046
:0400000300001800E1
:00000001FF
